{
  "_format": "hh-sol-artifact-1",
  "contractName": "MyEpicNFT",
  "sourceName": "contracts/MyEpicNFT.sol",
  "abi": [
    {
      "inputs": [],
      "stateMutability": "nonpayable",
      "type": "constructor"
    },
    {
      "anonymous": false,
      "inputs": [
        {
          "indexed": true,
          "internalType": "address",
          "name": "owner",
          "type": "address"
        },
        {
          "indexed": true,
          "internalType": "address",
          "name": "approved",
          "type": "address"
        },
        {
          "indexed": true,
          "internalType": "uint256",
          "name": "tokenId",
          "type": "uint256"
        }
      ],
      "name": "Approval",
      "type": "event"
    },
    {
      "anonymous": false,
      "inputs": [
        {
          "indexed": true,
          "internalType": "address",
          "name": "owner",
          "type": "address"
        },
        {
          "indexed": true,
          "internalType": "address",
          "name": "operator",
          "type": "address"
        },
        {
          "indexed": false,
          "internalType": "bool",
          "name": "approved",
          "type": "bool"
        }
      ],
      "name": "ApprovalForAll",
      "type": "event"
    },
    {
      "anonymous": false,
      "inputs": [
        {
          "indexed": false,
          "internalType": "address",
          "name": "sender",
          "type": "address"
        },
        {
          "indexed": false,
          "internalType": "uint256",
          "name": "tokenId",
          "type": "uint256"
        },
        {
          "indexed": false,
          "internalType": "uint256",
          "name": "mintCap",
          "type": "uint256"
        }
      ],
      "name": "NewEpicNFTMinted",
      "type": "event"
    },
    {
      "anonymous": false,
      "inputs": [
        {
          "indexed": true,
          "internalType": "address",
          "name": "from",
          "type": "address"
        },
        {
          "indexed": true,
          "internalType": "address",
          "name": "to",
          "type": "address"
        },
        {
          "indexed": true,
          "internalType": "uint256",
          "name": "tokenId",
          "type": "uint256"
        }
      ],
      "name": "Transfer",
      "type": "event"
    },
    {
      "inputs": [
        {
          "internalType": "address",
          "name": "to",
          "type": "address"
        },
        {
          "internalType": "uint256",
          "name": "tokenId",
          "type": "uint256"
        }
      ],
      "name": "approve",
      "outputs": [],
      "stateMutability": "nonpayable",
      "type": "function"
    },
    {
      "inputs": [
        {
          "internalType": "address",
          "name": "owner",
          "type": "address"
        }
      ],
      "name": "balanceOf",
      "outputs": [
        {
          "internalType": "uint256",
          "name": "",
          "type": "uint256"
        }
      ],
      "stateMutability": "view",
      "type": "function"
    },
    {
      "inputs": [
        {
          "internalType": "uint256",
          "name": "tokenId",
          "type": "uint256"
        }
      ],
      "name": "getApproved",
      "outputs": [
        {
          "internalType": "address",
          "name": "",
          "type": "address"
        }
      ],
      "stateMutability": "view",
      "type": "function"
    },
    {
      "inputs": [],
      "name": "getMintCap",
      "outputs": [
        {
          "internalType": "uint256",
          "name": "",
          "type": "uint256"
        }
      ],
      "stateMutability": "view",
      "type": "function"
    },
    {
      "inputs": [],
      "name": "getMintedAmount",
      "outputs": [
        {
          "internalType": "uint256",
          "name": "",
          "type": "uint256"
        }
      ],
      "stateMutability": "view",
      "type": "function"
    },
    {
      "inputs": [
        {
          "internalType": "address",
          "name": "owner",
          "type": "address"
        },
        {
          "internalType": "address",
          "name": "operator",
          "type": "address"
        }
      ],
      "name": "isApprovedForAll",
      "outputs": [
        {
          "internalType": "bool",
          "name": "",
          "type": "bool"
        }
      ],
      "stateMutability": "view",
      "type": "function"
    },
    {
      "inputs": [],
      "name": "makeAnEpicNFT",
      "outputs": [],
      "stateMutability": "nonpayable",
      "type": "function"
    },
    {
      "inputs": [],
      "name": "name",
      "outputs": [
        {
          "internalType": "string",
          "name": "",
          "type": "string"
        }
      ],
      "stateMutability": "view",
      "type": "function"
    },
    {
      "inputs": [
        {
          "internalType": "uint256",
          "name": "tokenId",
          "type": "uint256"
        }
      ],
      "name": "ownerOf",
      "outputs": [
        {
          "internalType": "address",
          "name": "",
          "type": "address"
        }
      ],
      "stateMutability": "view",
      "type": "function"
    },
    {
      "inputs": [
        {
          "internalType": "uint256",
          "name": "tokenId",
          "type": "uint256"
        }
      ],
      "name": "pickRandomFirstWord",
      "outputs": [
        {
          "internalType": "string",
          "name": "",
          "type": "string"
        }
      ],
      "stateMutability": "view",
      "type": "function"
    },
    {
      "inputs": [
        {
          "internalType": "uint256",
          "name": "tokenId",
          "type": "uint256"
        }
      ],
      "name": "pickRandomSecondWord",
      "outputs": [
        {
          "internalType": "string",
          "name": "",
          "type": "string"
        }
      ],
      "stateMutability": "view",
      "type": "function"
    },
    {
      "inputs": [
        {
          "internalType": "uint256",
          "name": "tokenId",
          "type": "uint256"
        }
      ],
      "name": "pickRandomThirdWord",
      "outputs": [
        {
          "internalType": "string",
          "name": "",
          "type": "string"
        }
      ],
      "stateMutability": "view",
      "type": "function"
    },
    {
      "inputs": [
        {
          "internalType": "address",
          "name": "from",
          "type": "address"
        },
        {
          "internalType": "address",
          "name": "to",
          "type": "address"
        },
        {
          "internalType": "uint256",
          "name": "tokenId",
          "type": "uint256"
        }
      ],
      "name": "safeTransferFrom",
      "outputs": [],
      "stateMutability": "nonpayable",
      "type": "function"
    },
    {
      "inputs": [
        {
          "internalType": "address",
          "name": "from",
          "type": "address"
        },
        {
          "internalType": "address",
          "name": "to",
          "type": "address"
        },
        {
          "internalType": "uint256",
          "name": "tokenId",
          "type": "uint256"
        },
        {
          "internalType": "bytes",
          "name": "_data",
          "type": "bytes"
        }
      ],
      "name": "safeTransferFrom",
      "outputs": [],
      "stateMutability": "nonpayable",
      "type": "function"
    },
    {
      "inputs": [
        {
          "internalType": "address",
          "name": "operator",
          "type": "address"
        },
        {
          "internalType": "bool",
          "name": "approved",
          "type": "bool"
        }
      ],
      "name": "setApprovalForAll",
      "outputs": [],
      "stateMutability": "nonpayable",
      "type": "function"
    },
    {
      "inputs": [
        {
          "internalType": "bytes4",
          "name": "interfaceId",
          "type": "bytes4"
        }
      ],
      "name": "supportsInterface",
      "outputs": [
        {
          "internalType": "bool",
          "name": "",
          "type": "bool"
        }
      ],
      "stateMutability": "view",
      "type": "function"
    },
    {
      "inputs": [],
      "name": "symbol",
      "outputs": [
        {
          "internalType": "string",
          "name": "",
          "type": "string"
        }
      ],
      "stateMutability": "view",
      "type": "function"
    },
    {
      "inputs": [
        {
          "internalType": "uint256",
          "name": "tokenId",
          "type": "uint256"
        }
      ],
      "name": "tokenURI",
      "outputs": [
        {
          "internalType": "string",
          "name": "",
          "type": "string"
        }
      ],
      "stateMutability": "view",
      "type": "function"
    },
    {
      "inputs": [
        {
          "internalType": "address",
          "name": "from",
          "type": "address"
        },
        {
          "internalType": "address",
          "name": "to",
          "type": "address"
        },
        {
          "internalType": "uint256",
          "name": "tokenId",
          "type": "uint256"
        }
      ],
      "name": "transferFrom",
      "outputs": [],
      "stateMutability": "nonpayable",
      "type": "function"
    }
  ],
  "bytecode": "0x608060405260966008556040518061012001604052806040518060400160405280600681526020017f486967686c79000000000000000000000000000000000000000000000000000081525081526020016040518060400160405280600a81526020017f4173746f6e6973686c790000000000000000000000000000000000000000000081525081526020016040518060400160405280600981526020017f417765736f6d656c79000000000000000000000000000000000000000000000081525081526020016040518060400160405280600c81526020017f53757270726973696e676c79000000000000000000000000000000000000000081525081526020016040518060400160405280600881526020017f41637475616c6c7900000000000000000000000000000000000000000000000081525081526020016040518060400160405280600581526020017f4d6179626500000000000000000000000000000000000000000000000000000081525081526020016040518060400160405280600781526020017f4675636b696e670000000000000000000000000000000000000000000000000081525081526020016040518060400160405280600681526020017f426172656c79000000000000000000000000000000000000000000000000000081525081526020016040518060400160405280600a81526020017f4162736f6c7574656c790000000000000000000000000000000000000000000081525081525060099060096200023892919062000782565b506040518061012001604052806040518060400160405280600a81526020017f44657370696361626c650000000000000000000000000000000000000000000081525081526020016040518060400160405280600681526020017f46726f7a656e000000000000000000000000000000000000000000000000000081525081526020016040518060400160405280600381526020017f486f74000000000000000000000000000000000000000000000000000000000081525081526020016040518060400160405280600681526020017f42726f6b656e000000000000000000000000000000000000000000000000000081525081526020016040518060400160405280600a81526020017f556e62616c616e6365640000000000000000000000000000000000000000000081525081526020016040518060400160405280600681526020017f426961736564000000000000000000000000000000000000000000000000000081525081526020016040518060400160405280600981526020017f4f7665727261746564000000000000000000000000000000000000000000000081525081526020016040518060400160405280600a81526020017f556e64657272617465640000000000000000000000000000000000000000000081525081526020016040518060400160405280600b81526020017f4f766572706f7765726564000000000000000000000000000000000000000000815250815250600a9060096200046892919062000782565b506040518061012001604052806040518060400160405280600781526020017f457363616e6f720000000000000000000000000000000000000000000000000081525081526020016040518060400160405280600681526020017f536173756b65000000000000000000000000000000000000000000000000000081525081526020016040518060400160405280600681526020017f4a6f7461726f000000000000000000000000000000000000000000000000000081525081526020016040518060400160405280600381526020017f44696f000000000000000000000000000000000000000000000000000000000081525081526020016040518060400160405280600981526020017f506f6c6e6172656666000000000000000000000000000000000000000000000081525081526020016040518060400160405280600381526020017f44696f000000000000000000000000000000000000000000000000000000000081525081526020016040518060400160405280600681526020017f4b696c6c7561000000000000000000000000000000000000000000000000000081525081526020016040518060400160405280600681526020017f4869736f6b61000000000000000000000000000000000000000000000000000081525081526020016040518060400160405280600581526020017f416c646572000000000000000000000000000000000000000000000000000000815250815250600b9060096200069892919062000782565b5060405180610160016040528061012f8152602001620042c461012f9139600c9080519060200190620006cd929190620007e9565b50348015620006db57600080fd5b506040518060400160405280600981526020017f5371756172654e465400000000000000000000000000000000000000000000008152506040518060400160405280600681526020017f5351554152450000000000000000000000000000000000000000000000000000815250816000908051906020019062000760929190620007e9565b50806001908051906020019062000779929190620007e9565b5050506200096c565b828054828255906000526020600020908101928215620007d6579160200282015b82811115620007d5578251829080519060200190620007c4929190620007e9565b5091602001919060010190620007a3565b5b509050620007e591906200087a565b5090565b828054620007f79062000907565b90600052602060002090601f0160209004810192826200081b576000855562000867565b82601f106200083657805160ff191683800117855562000867565b8280016001018555821562000867579182015b828111156200086657825182559160200191906001019062000849565b5b509050620008769190620008a2565b5090565b5b808211156200089e5760008181620008949190620008c1565b506001016200087b565b5090565b5b80821115620008bd576000816000905550600101620008a3565b5090565b508054620008cf9062000907565b6000825580601f10620008e3575062000904565b601f016020900490600052602060002090810190620009039190620008a2565b5b50565b600060028204905060018216806200092057607f821691505b602082108114156200093757620009366200093d565b5b50919050565b7f4e487b7100000000000000000000000000000000000000000000000000000000600052602260045260246000fd5b613948806200097c6000396000f3fe608060405234801561001057600080fd5b50600436106101215760003560e01c806370a08231116100ad578063b88d4fde11610071578063b88d4fde1461032e578063c575757a1461034a578063c87b56dd1461037a578063de9d132f146103aa578063e985e9c5146103b457610121565b806370a082311461027657806388ab4168146102a657806395d89b41146102c4578063a22cb465146102e2578063b187301f146102fe57610121565b80631253684b116100f45780631253684b146101c057806323b872dd146101de5780632de38d68146101fa57806342842e0e1461022a5780636352211e1461024657610121565b806301ffc9a71461012657806306fdde0314610156578063081812fc14610174578063095ea7b3146101a4575b600080fd5b610140600480360381019061013b9190612542565b6103e4565b60405161014d91906131be565b60405180910390f35b61015e6104c6565b60405161016b91906131d9565b60405180910390f35b61018e60048036038101906101899190612594565b610558565b60405161019b9190613120565b60405180910390f35b6101be60048036038101906101b99190612506565b6105dd565b005b6101c86106f5565b6040516101d59190613439565b60405180910390f35b6101f860048036038101906101f39190612400565b6106ff565b005b610214600480360381019061020f9190612594565b61075f565b60405161022191906131d9565b60405180910390f35b610244600480360381019061023f9190612400565b61087d565b005b610260600480360381019061025b9190612594565b61089d565b60405161026d9190613120565b60405180910390f35b610290600480360381019061028b919061239b565b61094f565b60405161029d9190613439565b60405180910390f35b6102ae610a07565b6040516102bb9190613439565b60405180910390f35b6102cc610a18565b6040516102d991906131d9565b60405180910390f35b6102fc60048036038101906102f791906124ca565b610aaa565b005b61031860048036038101906103139190612594565b610ac0565b60405161032591906131d9565b60405180910390f35b6103486004803603810190610343919061244f565b610bde565b005b610364600480360381019061035f9190612594565b610c40565b60405161037191906131d9565b60405180910390f35b610394600480360381019061038f9190612594565b610d5e565b6040516103a191906131d9565b60405180910390f35b6103b2610eb0565b005b6103ce60048036038101906103c991906123c4565b6110ae565b6040516103db91906131be565b60405180910390f35b60007f80ac58cd000000000000000000000000000000000000000000000000000000007bffffffffffffffffffffffffffffffffffffffffffffffffffffffff1916827bffffffffffffffffffffffffffffffffffffffffffffffffffffffff191614806104af57507f5b5e139f000000000000000000000000000000000000000000000000000000007bffffffffffffffffffffffffffffffffffffffffffffffffffffffff1916827bffffffffffffffffffffffffffffffffffffffffffffffffffffffff1916145b806104bf57506104be82611142565b5b9050919050565b6060600080546104d5906136d8565b80601f0160208091040260200160405190810160405280929190818152602001828054610501906136d8565b801561054e5780601f106105235761010080835404028352916020019161054e565b820191906000526020600020905b81548152906001019060200180831161053157829003601f168201915b5050505050905090565b6000610563826111ac565b6105a2576040517f08c379a000000000000000000000000000000000000000000000000000000000815260040161059990613399565b60405180910390fd5b6004600083815260200190815260200160002060009054906101000a900473ffffffffffffffffffffffffffffffffffffffff169050919050565b60006105e88261089d565b90508073ffffffffffffffffffffffffffffffffffffffff168373ffffffffffffffffffffffffffffffffffffffff161415610659576040517f08c379a0000000000000000000000000000000000000000000000000000000008152600401610650906133f9565b60405180910390fd5b8073ffffffffffffffffffffffffffffffffffffffff16610678611218565b73ffffffffffffffffffffffffffffffffffffffff1614806106a757506106a6816106a1611218565b6110ae565b5b6106e6576040517f08c379a00000000000000000000000000000000000000000000000000000000081526004016106dd906132d9565b60405180910390fd5b6106f08383611220565b505050565b6000600854905090565b61071061070a611218565b826112d9565b61074f576040517f08c379a000000000000000000000000000000000000000000000000000000000815260040161074690613419565b60405180910390fd5b61075a8383836113b7565b505050565b6060600061079361076f84611613565b60405160200161077f91906130dc565b6040516020818303038152906040526117c0565b9050600980549050816107a69190613753565b9050600981815481106107e2577f4e487b7100000000000000000000000000000000000000000000000000000000600052603260045260246000fd5b9060005260206000200180546107f7906136d8565b80601f0160208091040260200160405190810160405280929190818152602001828054610823906136d8565b80156108705780601f1061084557610100808354040283529160200191610870565b820191906000526020600020905b81548152906001019060200180831161085357829003601f168201915b5050505050915050919050565b61089883838360405180602001604052806000815250610bde565b505050565b6000806002600084815260200190815260200160002060009054906101000a900473ffffffffffffffffffffffffffffffffffffffff169050600073ffffffffffffffffffffffffffffffffffffffff168173ffffffffffffffffffffffffffffffffffffffff161415610946576040517f08c379a000000000000000000000000000000000000000000000000000000000815260040161093d90613319565b60405180910390fd5b80915050919050565b60008073ffffffffffffffffffffffffffffffffffffffff168273ffffffffffffffffffffffffffffffffffffffff1614156109c0576040517f08c379a00000000000000000000000000000000000000000000000000000000081526004016109b7906132f9565b60405180910390fd5b600360008373ffffffffffffffffffffffffffffffffffffffff1673ffffffffffffffffffffffffffffffffffffffff168152602001908152602001600020549050919050565b6000610a1360076117f3565b905090565b606060018054610a27906136d8565b80601f0160208091040260200160405190810160405280929190818152602001828054610a53906136d8565b8015610aa05780601f10610a7557610100808354040283529160200191610aa0565b820191906000526020600020905b815481529060010190602001808311610a8357829003601f168201915b5050505050905090565b610abc610ab5611218565b8383611801565b5050565b60606000610af4610ad084611613565b604051602001610ae09190613075565b6040516020818303038152906040526117c0565b9050600a8054905081610b079190613753565b9050600a8181548110610b43577f4e487b7100000000000000000000000000000000000000000000000000000000600052603260045260246000fd5b906000526020600020018054610b58906136d8565b80601f0160208091040260200160405190810160405280929190818152602001828054610b84906136d8565b8015610bd15780601f10610ba657610100808354040283529160200191610bd1565b820191906000526020600020905b815481529060010190602001808311610bb457829003601f168201915b5050505050915050919050565b610bef610be9611218565b836112d9565b610c2e576040517f08c379a0000000000000000000000000000000000000000000000000000000008152600401610c2590613419565b60405180910390fd5b610c3a8484848461196e565b50505050565b60606000610c74610c5084611613565b604051602001610c609190613053565b6040516020818303038152906040526117c0565b9050600b8054905081610c879190613753565b9050600b8181548110610cc3577f4e487b7100000000000000000000000000000000000000000000000000000000600052603260045260246000fd5b906000526020600020018054610cd8906136d8565b80601f0160208091040260200160405190810160405280929190818152602001828054610d04906136d8565b8015610d515780601f10610d2657610100808354040283529160200191610d51565b820191906000526020600020905b815481529060010190602001808311610d3457829003601f168201915b5050505050915050919050565b6060610d69826111ac565b610da8576040517f08c379a0000000000000000000000000000000000000000000000000000000008152600401610d9f90613379565b60405180910390fd5b6000600660008481526020019081526020016000208054610dc8906136d8565b80601f0160208091040260200160405190810160405280929190818152602001828054610df4906136d8565b8015610e415780601f10610e1657610100808354040283529160200191610e41565b820191906000526020600020905b815481529060010190602001808311610e2457829003601f168201915b505050505090506000610e526119ca565b9050600081511415610e68578192505050610eab565b600082511115610e9d578082604051602001610e85929190612fcf565b60405160208183030381529060405292505050610eab565b610ea6846119e1565b925050505b919050565b6000610ebc60076117f3565b90506008548110610ecc57600080fd5b6000610ed78261075f565b90506000610ee483610ac0565b90506000610ef184610c40565b90506000838383604051602001610f0a93929190612ff3565b60405160208183030381529060405290506000600c82604051602001610f31929190613024565b60405160208183030381529060405290506000610f7683610f5184611a88565b604051602001610f62929190613097565b604051602081830303815290604052611a88565b9050610f823388611c46565b600081604051602001610f9591906130fe565b6040516020818303038152906040529050610fe46040518060400160405280601581526020017f0a2d2d2d2d2d2d2d2d2d2d2d2d2d2d2d2d2d2d2d2d0000000000000000000000815250611c64565b610fed81611c64565b61102b6040518060400160405280601981526020017f2d2d2d2d2d2d2d2d2d2d2d2d2d2d2d2d2d2d2d2d2d2d2d2d0a00000000000000815250611c64565b6110358882611cfd565b6110586040518060600160405280602581526020016138ae602591398933611d71565b7f9e9e101732de0887d722bd72c01c5439edc857c9c2c763953d67e66de12441d333896110836106f5565b60405161109293929190613187565b60405180910390a16110a46007611e10565b5050505050505050565b6000600560008473ffffffffffffffffffffffffffffffffffffffff1673ffffffffffffffffffffffffffffffffffffffff16815260200190815260200160002060008373ffffffffffffffffffffffffffffffffffffffff1673ffffffffffffffffffffffffffffffffffffffff16815260200190815260200160002060009054906101000a900460ff16905092915050565b60007f01ffc9a7000000000000000000000000000000000000000000000000000000007bffffffffffffffffffffffffffffffffffffffffffffffffffffffff1916827bffffffffffffffffffffffffffffffffffffffffffffffffffffffff1916149050919050565b60008073ffffffffffffffffffffffffffffffffffffffff166002600084815260200190815260200160002060009054906101000a900473ffffffffffffffffffffffffffffffffffffffff1673ffffffffffffffffffffffffffffffffffffffff1614159050919050565b600033905090565b816004600083815260200190815260200160002060006101000a81548173ffffffffffffffffffffffffffffffffffffffff021916908373ffffffffffffffffffffffffffffffffffffffff160217905550808273ffffffffffffffffffffffffffffffffffffffff166112938361089d565b73ffffffffffffffffffffffffffffffffffffffff167f8c5be1e5ebec7d5bd14f71427d1e84f3dd0314c0f7b2291e5b200ac8c7c3b92560405160405180910390a45050565b60006112e4826111ac565b611323576040517f08c379a000000000000000000000000000000000000000000000000000000000815260040161131a906132b9565b60405180910390fd5b600061132e8361089d565b90508073ffffffffffffffffffffffffffffffffffffffff168473ffffffffffffffffffffffffffffffffffffffff16148061139d57508373ffffffffffffffffffffffffffffffffffffffff1661138584610558565b73ffffffffffffffffffffffffffffffffffffffff16145b806113ae57506113ad81856110ae565b5b91505092915050565b8273ffffffffffffffffffffffffffffffffffffffff166113d78261089d565b73ffffffffffffffffffffffffffffffffffffffff161461142d576040517f08c379a0000000000000000000000000000000000000000000000000000000008152600401611424906133b9565b60405180910390fd5b600073ffffffffffffffffffffffffffffffffffffffff168273ffffffffffffffffffffffffffffffffffffffff16141561149d576040517f08c379a000000000000000000000000000000000000000000000000000000000815260040161149490613279565b60405180910390fd5b6114a8838383611e26565b6114b3600082611220565b6001600360008573ffffffffffffffffffffffffffffffffffffffff1673ffffffffffffffffffffffffffffffffffffffff168152602001908152602001600020600082825461150391906135ee565b925050819055506001600360008473ffffffffffffffffffffffffffffffffffffffff1673ffffffffffffffffffffffffffffffffffffffff168152602001908152602001600020600082825461155a919061350d565b92505081905550816002600083815260200190815260200160002060006101000a81548173ffffffffffffffffffffffffffffffffffffffff021916908373ffffffffffffffffffffffffffffffffffffffff160217905550808273ffffffffffffffffffffffffffffffffffffffff168473ffffffffffffffffffffffffffffffffffffffff167fddf252ad1be2c89b69c2b068fc378daa952ba7f163c4a11628f55a4df523b3ef60405160405180910390a4505050565b6060600082141561165b576040518060400160405280600181526020017f300000000000000000000000000000000000000000000000000000000000000081525090506117bb565b600082905060005b6000821461168d5780806116769061370a565b915050600a826116869190613563565b9150611663565b60008167ffffffffffffffff8111156116cf577f4e487b7100000000000000000000000000000000000000000000000000000000600052604160045260246000fd5b6040519080825280601f01601f1916602001820160405280156117015781602001600182028036833780820191505090505b5090505b600085146117b45760018261171a91906135ee565b9150600a856117299190613753565b6030611735919061350d565b60f81b818381518110611771577f4e487b7100000000000000000000000000000000000000000000000000000000600052603260045260246000fd5b60200101907effffffffffffffffffffffffffffffffffffffffffffffffffffffffffffff1916908160001a905350600a856117ad9190613563565b9450611705565b8093505050505b919050565b6000816040516020016117d39190612fb8565b6040516020818303038152906040528051906020012060001c9050919050565b600081600001549050919050565b8173ffffffffffffffffffffffffffffffffffffffff168373ffffffffffffffffffffffffffffffffffffffff161415611870576040517f08c379a000000000000000000000000000000000000000000000000000000000815260040161186790613299565b60405180910390fd5b80600560008573ffffffffffffffffffffffffffffffffffffffff1673ffffffffffffffffffffffffffffffffffffffff16815260200190815260200160002060008473ffffffffffffffffffffffffffffffffffffffff1673ffffffffffffffffffffffffffffffffffffffff16815260200190815260200160002060006101000a81548160ff0219169083151502179055508173ffffffffffffffffffffffffffffffffffffffff168373ffffffffffffffffffffffffffffffffffffffff167f17307eab39ab6107e8899845ad3d59bd9653f200f220920489ca2b5937696c318360405161196191906131be565b60405180910390a3505050565b6119798484846113b7565b61198584848484611e2b565b6119c4576040517f08c379a00000000000000000000000000000000000000000000000000000000081526004016119bb90613239565b60405180910390fd5b50505050565b606060405180602001604052806000815250905090565b60606119ec826111ac565b611a2b576040517f08c379a0000000000000000000000000000000000000000000000000000000008152600401611a22906133d9565b60405180910390fd5b6000611a356119ca565b90506000815111611a555760405180602001604052806000815250611a80565b80611a5f84611613565b604051602001611a70929190612fcf565b6040516020818303038152906040525b915050919050565b60606000825190506000811415611ab15760405180602001604052806000815250915050611c41565b60006003600283611ac2919061350d565b611acc9190613563565b6004611ad89190613594565b90506000602082611ae9919061350d565b67ffffffffffffffff811115611b28577f4e487b7100000000000000000000000000000000000000000000000000000000600052604160045260246000fd5b6040519080825280601f01601f191660200182016040528015611b5a5781602001600182028036833780820191505090505b50905060006040518060600160405280604081526020016138d3604091399050600181016020830160005b86811015611bfe5760038101905062ffffff818a015116603f8160121c168401518060081b905060ff603f83600c1c1686015116810190508060081b905060ff603f8360061c1686015116810190508060081b905060ff603f831686015116810190508060e01b90508084526004840193505050611b85565b506003860660018114611c185760028114611c2857611c33565b613d3d60f01b6002830352611c33565b603d60f81b60018303525b508484525050819450505050505b919050565b611c60828260405180602001604052806000815250611fc2565b5050565b611cfa81604051602401611c7891906131d9565b6040516020818303038152906040527f41304fac000000000000000000000000000000000000000000000000000000007bffffffffffffffffffffffffffffffffffffffffffffffffffffffff19166020820180517bffffffffffffffffffffffffffffffffffffffffffffffffffffffff838183161783525050505061201d565b50565b611d06826111ac565b611d45576040517f08c379a0000000000000000000000000000000000000000000000000000000008152600401611d3c90613339565b60405180910390fd5b80600660008481526020019081526020016000209080519060200190611d6c929190612227565b505050565b611e0b838383604051602401611d89939291906131fb565b6040516020818303038152906040527fe3849f79000000000000000000000000000000000000000000000000000000007bffffffffffffffffffffffffffffffffffffffffffffffffffffffff19166020820180517bffffffffffffffffffffffffffffffffffffffffffffffffffffffff838183161783525050505061201d565b505050565b6001816000016000828254019250508190555050565b505050565b6000611e4c8473ffffffffffffffffffffffffffffffffffffffff16612046565b15611fb5578373ffffffffffffffffffffffffffffffffffffffff1663150b7a02611e75611218565b8786866040518563ffffffff1660e01b8152600401611e97949392919061313b565b602060405180830381600087803b158015611eb157600080fd5b505af1925050508015611ee257506040513d601f19601f82011682018060405250810190611edf919061256b565b60015b611f65573d8060008114611f12576040519150601f19603f3d011682016040523d82523d6000602084013e611f17565b606091505b50600081511415611f5d576040517f08c379a0000000000000000000000000000000000000000000000000000000008152600401611f5490613239565b60405180910390fd5b805181602001fd5b63150b7a0260e01b7bffffffffffffffffffffffffffffffffffffffffffffffffffffffff1916817bffffffffffffffffffffffffffffffffffffffffffffffffffffffff191614915050611fba565b600190505b949350505050565b611fcc8383612059565b611fd96000848484611e2b565b612018576040517f08c379a000000000000000000000000000000000000000000000000000000000815260040161200f90613239565b60405180910390fd5b505050565b60008151905060006a636f6e736f6c652e6c6f679050602083016000808483855afa5050505050565b600080823b905060008111915050919050565b600073ffffffffffffffffffffffffffffffffffffffff168273ffffffffffffffffffffffffffffffffffffffff1614156120c9576040517f08c379a00000000000000000000000000000000000000000000000000000000081526004016120c090613359565b60405180910390fd5b6120d2816111ac565b15612112576040517f08c379a000000000000000000000000000000000000000000000000000000000815260040161210990613259565b60405180910390fd5b61211e60008383611e26565b6001600360008473ffffffffffffffffffffffffffffffffffffffff1673ffffffffffffffffffffffffffffffffffffffff168152602001908152602001600020600082825461216e919061350d565b92505081905550816002600083815260200190815260200160002060006101000a81548173ffffffffffffffffffffffffffffffffffffffff021916908373ffffffffffffffffffffffffffffffffffffffff160217905550808273ffffffffffffffffffffffffffffffffffffffff16600073ffffffffffffffffffffffffffffffffffffffff167fddf252ad1be2c89b69c2b068fc378daa952ba7f163c4a11628f55a4df523b3ef60405160405180910390a45050565b828054612233906136d8565b90600052602060002090601f016020900481019282612255576000855561229c565b82601f1061226e57805160ff191683800117855561229c565b8280016001018555821561229c579182015b8281111561229b578251825591602001919060010190612280565b5b5090506122a991906122ad565b5090565b5b808211156122c65760008160009055506001016122ae565b5090565b60006122dd6122d884613485565b613454565b9050828152602081018484840111156122f557600080fd5b612300848285613696565b509392505050565b60008135905061231781613851565b92915050565b60008135905061232c81613868565b92915050565b6000813590506123418161387f565b92915050565b6000815190506123568161387f565b92915050565b600082601f83011261236d57600080fd5b813561237d8482602086016122ca565b91505092915050565b60008135905061239581613896565b92915050565b6000602082840312156123ad57600080fd5b60006123bb84828501612308565b91505092915050565b600080604083850312156123d757600080fd5b60006123e585828601612308565b92505060206123f685828601612308565b9150509250929050565b60008060006060848603121561241557600080fd5b600061242386828701612308565b935050602061243486828701612308565b925050604061244586828701612386565b9150509250925092565b6000806000806080858703121561246557600080fd5b600061247387828801612308565b945050602061248487828801612308565b935050604061249587828801612386565b925050606085013567ffffffffffffffff8111156124b257600080fd5b6124be8782880161235c565b91505092959194509250565b600080604083850312156124dd57600080fd5b60006124eb85828601612308565b92505060206124fc8582860161231d565b9150509250929050565b6000806040838503121561251957600080fd5b600061252785828601612308565b925050602061253885828601612386565b9150509250929050565b60006020828403121561255457600080fd5b600061256284828501612332565b91505092915050565b60006020828403121561257d57600080fd5b600061258b84828501612347565b91505092915050565b6000602082840312156125a657600080fd5b60006125b484828501612386565b91505092915050565b6125c681613622565b82525050565b6125d581613634565b82525050565b60006125e6826134ca565b6125f081856134e0565b93506126008185602086016136a5565b61260981613840565b840191505092915050565b600061261f826134d5565b61262981856134f1565b93506126398185602086016136a5565b61264281613840565b840191505092915050565b6000612658826134d5565b6126628185613502565b93506126728185602086016136a5565b80840191505092915050565b6000815461268b816136d8565b6126958186613502565b945060018216600081146126b057600181146126c1576126f4565b60ff198316865281860193506126f4565b6126ca856134b5565b60005b838110156126ec578154818901526001820191506020810190506126cd565b838801955050505b50505092915050565b600061270a6032836134f1565b91507f4552433732313a207472616e7366657220746f206e6f6e20455243373231526560008301527f63656976657220696d706c656d656e74657200000000000000000000000000006020830152604082019050919050565b6000612770601c836134f1565b91507f4552433732313a20746f6b656e20616c7265616479206d696e746564000000006000830152602082019050919050565b60006127b0600a83613502565b91507f54484952445f574f5244000000000000000000000000000000000000000000006000830152600a82019050919050565b60006127f06024836134f1565b91507f4552433732313a207472616e7366657220746f20746865207a65726f2061646460008301527f72657373000000000000000000000000000000000000000000000000000000006020830152604082019050919050565b60006128566019836134f1565b91507f4552433732313a20617070726f766520746f2063616c6c6572000000000000006000830152602082019050919050565b6000612896600b83613502565b91507f5345434f4e445f574f52440000000000000000000000000000000000000000006000830152600b82019050919050565b60006128d6602c836134f1565b91507f4552433732313a206f70657261746f7220717565727920666f72206e6f6e657860008301527f697374656e7420746f6b656e00000000000000000000000000000000000000006020830152604082019050919050565b600061293c600d83613502565b91507f3c2f746578743e3c2f7376673e000000000000000000000000000000000000006000830152600d82019050919050565b600061297c6038836134f1565b91507f4552433732313a20617070726f76652063616c6c6572206973206e6f74206f7760008301527f6e6572206e6f7220617070726f76656420666f7220616c6c00000000000000006020830152604082019050919050565b60006129e2602a836134f1565b91507f4552433732313a2062616c616e636520717565727920666f7220746865207a6560008301527f726f2061646472657373000000000000000000000000000000000000000000006020830152604082019050919050565b6000612a486029836134f1565b91507f4552433732313a206f776e657220717565727920666f72206e6f6e657869737460008301527f656e7420746f6b656e00000000000000000000000000000000000000000000006020830152604082019050919050565b6000612aae602e836134f1565b91507f45524337323155524953746f726167653a2055524920736574206f66206e6f6e60008301527f6578697374656e7420746f6b656e0000000000000000000000000000000000006020830152604082019050919050565b6000612b14600283613502565b91507f227d0000000000000000000000000000000000000000000000000000000000006000830152600282019050919050565b6000612b546020836134f1565b91507f4552433732313a206d696e7420746f20746865207a65726f20616464726573736000830152602082019050919050565b6000612b946031836134f1565b91507f45524337323155524953746f726167653a2055524920717565727920666f722060008301527f6e6f6e6578697374656e7420746f6b656e0000000000000000000000000000006020830152604082019050919050565b6000612bfa602c836134f1565b91507f4552433732313a20617070726f76656420717565727920666f72206e6f6e657860008301527f697374656e7420746f6b656e00000000000000000000000000000000000000006020830152604082019050919050565b6000612c606029836134f1565b91507f4552433732313a207472616e73666572206f6620746f6b656e2074686174206960008301527f73206e6f74206f776e00000000000000000000000000000000000000000000006020830152604082019050919050565b6000612cc6602f836134f1565b91507f4552433732314d657461646174613a2055524920717565727920666f72206e6f60008301527f6e6578697374656e7420746f6b656e00000000000000000000000000000000006020830152604082019050919050565b6000612d2c600a83613502565b91507f7b226e616d65223a2022000000000000000000000000000000000000000000006000830152600a82019050919050565b6000612d6c6021836134f1565b91507f4552433732313a20617070726f76616c20746f2063757272656e74206f776e6560008301527f72000000000000000000000000000000000000000000000000000000000000006020830152604082019050919050565b6000612dd2600a83613502565b91507f46495253545f574f5244000000000000000000000000000000000000000000006000830152600a82019050919050565b6000612e12601d83613502565b91507f646174613a6170706c69636174696f6e2f6a736f6e3b6261736536342c0000006000830152601d82019050919050565b6000612e526031836134f1565b91507f4552433732313a207472616e736665722063616c6c6572206973206e6f74206f60008301527f776e6572206e6f7220617070726f7665640000000000000000000000000000006020830152604082019050919050565b6000612eb860ba83613502565b91507f222c20226465736372697074696f6e223a20226261736963616c6c792074686560008301527f73652061726520776869746520776f726473206f6e206120626c61636b20626160208301527f636b67726f756e642c20627574207472757374206d652c2065616368206f6e6560408301527f20697320756e6971756520616e64206c6976657320616e20617765736f6d652060608301527f646563656e7472616c697a6564206c6966652e222c2022696d616765223a202260808301527f646174613a696d6167652f7376672b786d6c3b6261736536342c00000000000060a083015260ba82019050919050565b612fb28161368c565b82525050565b6000612fc4828461264d565b915081905092915050565b6000612fdb828561264d565b9150612fe7828461264d565b91508190509392505050565b6000612fff828661264d565b915061300b828561264d565b9150613017828461264d565b9150819050949350505050565b6000613030828561267e565b915061303c828461264d565b91506130478261292f565b91508190509392505050565b600061305e826127a3565b915061306a828461264d565b915081905092915050565b600061308082612889565b915061308c828461264d565b915081905092915050565b60006130a282612d1f565b91506130ae828561264d565b91506130b982612eab565b91506130c5828461264d565b91506130d082612b07565b91508190509392505050565b60006130e782612dc5565b91506130f3828461264d565b915081905092915050565b600061310982612e05565b9150613115828461264d565b915081905092915050565b600060208201905061313560008301846125bd565b92915050565b600060808201905061315060008301876125bd565b61315d60208301866125bd565b61316a6040830185612fa9565b818103606083015261317c81846125db565b905095945050505050565b600060608201905061319c60008301866125bd565b6131a96020830185612fa9565b6131b66040830184612fa9565b949350505050565b60006020820190506131d360008301846125cc565b92915050565b600060208201905081810360008301526131f38184612614565b905092915050565b600060608201905081810360008301526132158186612614565b90506132246020830185612fa9565b61323160408301846125bd565b949350505050565b60006020820190508181036000830152613252816126fd565b9050919050565b6000602082019050818103600083015261327281612763565b9050919050565b60006020820190508181036000830152613292816127e3565b9050919050565b600060208201905081810360008301526132b281612849565b9050919050565b600060208201905081810360008301526132d2816128c9565b9050919050565b600060208201905081810360008301526132f28161296f565b9050919050565b60006020820190508181036000830152613312816129d5565b9050919050565b6000602082019050818103600083015261333281612a3b565b9050919050565b6000602082019050818103600083015261335281612aa1565b9050919050565b6000602082019050818103600083015261337281612b47565b9050919050565b6000602082019050818103600083015261339281612b87565b9050919050565b600060208201905081810360008301526133b281612bed565b9050919050565b600060208201905081810360008301526133d281612c53565b9050919050565b600060208201905081810360008301526133f281612cb9565b9050919050565b6000602082019050818103600083015261341281612d5f565b9050919050565b6000602082019050818103600083015261343281612e45565b9050919050565b600060208201905061344e6000830184612fa9565b92915050565b6000604051905081810181811067ffffffffffffffff8211171561347b5761347a613811565b5b8060405250919050565b600067ffffffffffffffff8211156134a05761349f613811565b5b601f19601f8301169050602081019050919050565b60008190508160005260206000209050919050565b600081519050919050565b600081519050919050565b600082825260208201905092915050565b600082825260208201905092915050565b600081905092915050565b60006135188261368c565b91506135238361368c565b9250827fffffffffffffffffffffffffffffffffffffffffffffffffffffffffffffffff0382111561355857613557613784565b5b828201905092915050565b600061356e8261368c565b91506135798361368c565b925082613589576135886137b3565b5b828204905092915050565b600061359f8261368c565b91506135aa8361368c565b9250817fffffffffffffffffffffffffffffffffffffffffffffffffffffffffffffffff04831182151516156135e3576135e2613784565b5b828202905092915050565b60006135f98261368c565b91506136048361368c565b92508282101561361757613616613784565b5b828203905092915050565b600061362d8261366c565b9050919050565b60008115159050919050565b60007fffffffff0000000000000000000000000000000000000000000000000000000082169050919050565b600073ffffffffffffffffffffffffffffffffffffffff82169050919050565b6000819050919050565b82818337600083830152505050565b60005b838110156136c35780820151818401526020810190506136a8565b838111156136d2576000848401525b50505050565b600060028204905060018216806136f057607f821691505b60208210811415613704576137036137e2565b5b50919050565b60006137158261368c565b91507fffffffffffffffffffffffffffffffffffffffffffffffffffffffffffffffff82141561374857613747613784565b5b600182019050919050565b600061375e8261368c565b91506137698361368c565b925082613779576137786137b3565b5b828206905092915050565b7f4e487b7100000000000000000000000000000000000000000000000000000000600052601160045260246000fd5b7f4e487b7100000000000000000000000000000000000000000000000000000000600052601260045260246000fd5b7f4e487b7100000000000000000000000000000000000000000000000000000000600052602260045260246000fd5b7f4e487b7100000000000000000000000000000000000000000000000000000000600052604160045260246000fd5b6000601f19601f8301169050919050565b61385a81613622565b811461386557600080fd5b50565b61387181613634565b811461387c57600080fd5b50565b61388881613640565b811461389357600080fd5b50565b61389f8161368c565b81146138aa57600080fd5b5056fe416e204e465420772f20494420257320686173206265656e206d696e74656420746f2025734142434445464748494a4b4c4d4e4f505152535455565758595a6162636465666768696a6b6c6d6e6f707172737475767778797a303132333435363738392b2fa26469706673582212206c27dab9465f3ac1d75248bc97f4df722da807e5b3ba1230ea4b78f94234b97764736f6c634300080000333c73766720786d6c6e733d27687474703a2f2f7777772e77332e6f72672f323030302f73766727207072657365727665417370656374526174696f3d27784d696e594d696e206d656574272076696577426f783d273020302033353020333530273e3c7374796c653e2e62617365207b2066696c6c3a2077686974653b20666f6e742d66616d696c793a2073657269663b20666f6e742d73697a653a20323470783b207d3c2f7374796c653e3c726563742077696474683d273130302527206865696768743d2731303025272066696c6c3d27626c61636b27202f3e3c7465787420783d273530252720793d273530252720636c6173733d27626173652720646f6d696e616e742d626173656c696e653d276d6964646c652720746578742d616e63686f723d276d6964646c65273e",
  "linkReferences": {},
  "deployedLinkReferences": {}
}